S01500002E2F44656275672F4C6162345F312E73313999
S315200000000248854600F070F8FEE700BF00C00120D8
S3152000001080B400AF054B00221A60054B01221A60FE
S3152000002000BFBD465DF8047B704700BF10E000E0CE
S315200000300C01002080B400AF0B4B0C4A1A600C4B0D
S3152000004000221A600B4B00221A600B4B29221A60E1
S315200000500A4B00221A60074B07221A6000BFBD46D2
S315200000605DF8047B704700BF3CC0012011000020D2
S315200000700C01002010E000E014E000E018E000E0B1
S3152000008080B400AF074B45F255521A60064B00224A
S315200000901A80064B45F255521A6000BFBD465DF8E0
S315200000A0047B7047000C0240040C0240080C0240FE
S315200000B080B582B000AF00237B6009E0FFF7BAFF6E
S315200000C000BF074B1B68002BFBD07B6801337B608E
S315200000D07B68044A9342F1DD00BF0837BD4680BDE8
S315200000E00C0100203F420F0080B500AFFFF7C8FF8C
S315200000F0054B00221A70FFF7DBFF034BFF221A7015
S31520000100FFF7D6FFF4E700BF140C02400000000002
S70520000000DA
