S01700002E2F52656C656173652F4C6162345F342E733139BA
S315200000000248854600F0C0F8FEE7000000C0012047
S3152000001004230B4A11680B4313604022094B1978BD
S315200000200A4340211A701A788A431A70064B1A78A6
S31520000030002A02D1FF221A70704700221A70FBE7AD
S31520000040143C014014100240A00100200022084B5D
S315200000501A700223074A11680B4313602022064BAD
S3152000006019780A4320211A701A788A431A70704721
S31520000070A0010020143C014014100240094A1378C4
S31520000080013313700123084A11680B4313601022B1
S31520000090064B19780A4310211A701A788A431A7067
S315200000A07047C046A0010020143C014014100240B5
S315200000B0AA221F4BD2011A600023FF211D4A0902E2
S315200000C013601D4A1D4811601D4A1E4913700B708E
S315200000D01D4901601D4803801D4B196001211D4BE0
S315200000E01970702313701F3313701B4A1B4B116832
S315200000F00B43136007231A490A681A430A601949F1
S315200001000A681A430A60184A116899431160174B06
S31520000110174A1A60174A184B1A60184A184B1A6061
S31520000120E023184A5B0011680B4313607047C046F2
S31520000130001002400C10024008100240000C024041
S31520000140141002401010024055550000040C0240C5
S31520000150080C0240A0010020083801404404000099
S31520000160003C0140083C01400C3C014060C001209D
S31520000170110000204D0000205CC001207D000020E1
S3152000018058C0012000E100E010B5FFF791FF0249B9
S31520000190024A0B781370FCE7A0010020140C0240E1
S309200001A00000000035
S70520000000DA
