S01500002E2F44656275672F4C6162345F332E73313997
S315200000000248854600F0C4F8FEE7C04600C001203D
S3152000001080B582B000AF234B1B78DAB2FB1D0F21CF
S315200000200A401A70204B1B680822134030D0FB1D53
S315200000301B78042213400ED01C4B1B78002B03D0B8
S315200000401A4B00221A7002E0184BFF221A70184B26
S3152000005040221A7019E0FB1D1B780222134006D09D
S31520000060134B20221A70114B00221A700DE0FB1D33
S315200000701B780122134008D00D4B10221A700B4B0F
S315200000801B780133DAB2094B1A70094B8F221A708A
S31520000090054B1A68044B08210A431A60C046BD4620
S315200000A002B080BD10100240143C0140AC0100207B
S315200000B01410024080B500AF244BAA22D2011A6048
S315200000C0234B00221A60234BFF2212021A60224B76
S315200000D000221A70214B00221A70214B214A1A60E5
S315200000E0214B00221A80214B1E4A1A60204B0122E6
S315200000F01A70194B70221A70174B8F221A701D4BCB
S315200001001B881C498022D20113439BB20B801A4BB9
S315200001101A68194B08210A431A60184B1A68174B9C
S3152000012008210A431A60164B1A68154B08218A4380
S315200001301A60144B144A1A60144B1A68134B802108
S3152000014089000A431A60C046BD4680BD00100240A1
S315200001500C100240081002401410024010100240F9
S31520000160000C024055550000040C0240080C0240C9
S31520000170AC01002008380140003C01400C3C014005
S31520000180083C014064C001201100002000E100E08D
S3152000019080B500AFFFF78EFF024A034B1B78137022
S315200001A0FAE7C046140C0240AC0100200000000013
S70520000000DA
