S01500002E2F44656275672F4C6162345F322E73313998
S315200000000248854600F060F8FEE7C04600C00120A1
S3152000001080B500AF094B1B68082213400BD0084B54
S315200000201B780133DAB2064B1A70044B1A68034B5D
S3152000003008210A431A60C046BD4680BD143C0140D3
S31520000040E400002080B500AF154B164A1A60164B07
S3152000005001221A70154B1A68144B8021C9010A43D4
S315200000601A60134B1A68124B08210A431A60114B67
S315200000701A68104B08210A431A600F4B1A680E4B58
S3152000008008218A431A600D4B0D4A1A600D4B1A68D7
S315200000900C4B802189000A431A60C046BD4680BDAC
S315200000A0000C024055550000E400002008380140AD
S315200000B0003C01400C3C0140083C014064C001204A
S315200000C01100002000E100E080B500AFFFF7BAFF85
S315200000D0024A034B1B781370FAE7C046140C024001
S30D200000E0E400002000000000EE
S70520000000DA
