S01500002E2F44656275672F4C6162325F322E7331399A
S315200000000248854600F072F8FEE7C04600C001208F
S3152000001080B500AF0C4B00221A600C4B29221A60C7
S315200000200B4B00221A60084B05221A60C046064B6D
S315200000301A6880235B021340F9D0034B00221A6012
S31520000040C046BD4680BDC04610E000E014E000E09A
S3152000005018E000E080B582B000AF78600AE0FFF7D4
S31520000060D7FFFFF7D5FFFFF7D3FFFFF7D1FF7B6859
S31520000070013B7B607B68002BF1D1C046BD4602B0B8
S3152000008080BD80B582B000AF78607A68FA23990087
S31520000090100000F043F803007B607B6801337B602F
S315200000A007E0FA239B001800FFF7D4FF7B68013B8B
S315200000B07B607B68002BF4D1C046BD4602B080BD74
S315200000C080B500AF054B064A1A60064B00221A80FF
S315200000D0054B034A1A60C046BD4680BD000C02404F
S315200000E055550000040C0240080C024080B500AFB4
S315200000F0FFF7E6FF084B00221A70FA235B00180070
S31520000100FFF7BFFF044BFF221A70FA235B0018008B
S31520000110FFF7B7FFEEE7C046140C02400022430863
S315200001208B4274D303098B425FD3030A8B4244D399
S31520000130030B8B4228D3030C8B420DD3FF220902DB
S3152000014012BA030C8B4202D31212090265D0030B9A
S315200001508B4219D300E0090AC30B8B4201D3CB0390
S31520000160C01A5241830B8B4201D38B03C01A5241D2
S31520000170430B8B4201D34B03C01A5241030B8B42D4
S3152000018001D30B03C01A5241C30A8B4201D3CB02BF
S31520000190C01A5241830A8B4201D38B02C01A5241A4
S315200001A0430A8B4201D34B02C01A5241030A8B42A7
S315200001B001D30B02C01A5241CDD2C3098B4201D3BF
S315200001C0CB01C01A524183098B4201D38B01C01A3D
S315200001D0524143098B4201D34B01C01A52410309B4
S315200001E08B4201D30B01C01A5241C3088B4201D363
S315200001F0CB00C01A524183088B4201D38B00C01A10
S31520000200524143088B4201D34B00C01A5241411A36
S3152000021000D20146524110467047FFE701B5002043
S3152000022000F006F802BDC0460029F7D076E77047F1
S309200002307047C046E7
S70520000000DA
