S01700002E2F52656C656173652F4C6162325F332E733139BD
S315200000000248854600F0C0F9FEE7000000C0012046
S3152000001000232920084A09491360086008490B6013
S31520000020802105331360490213680B42FCD000225D
S31520000030014B1A607047C04610E000E014E000E073
S3152000004018E000E0F0B546464F468046C0B400288A
S3152000005037D01E4A002594468022292005261C4B8F
S315200000601C4F520261461D6008603D601E60196883
S31520000070174C1142FBD061462560256008603D6023
S3152000008026601968124C1142FBD061462560256016
S3152000009008603D60266019680D4C1142FBD0614610
S315200000A02560256008603D60266019681142FCD0F5
S315200000B007490D60012149428946C8444146002925
S315200000C0D0D10CBC90469946F0BDC04614E000E065
S315200000D010E000E018E000E010B5041E09D0012071
S315200000E0FFF7B0FFFA20013C8000FFF7ABFF002CA2
S315200000F0F5D110BD0423034A11780B431843107021
S315200001007047C046141002400423C043024A1843D5
S3152000011011780840107070471410024044220E4B8C
S3152000012019780A4340211A700C4A10701A7829202F
S315200001308A431A7000230A4A0A49136008600A494A
S315200001400B60802105331360490213680B42FCD0F3
S315200001500022034B1A60704714100240151002400B
S3152000016010E000E014E000E018E000E00321104B6E
S315200001701A788A431A70442219780A4340211A7041
S315200001800C4A10701A7829208A431A7000230A4ACA
S315200001900A49136008600A490B6080210533136001
S315200001A0490213680B42FCD00022034B1A607047A9
S315200001B0141002401510024010E000E014E000E0A8
S315200001C018E000E00221124B1A788A431A700522A1
S315200001D019780A431A70442219780A4340211A7062
S315200001E00C4A10701A7829208A431A7000230A4A6A
S315200001F00A49136008600A490B60802105331360A1
S31520000200490213680B42FCD00022034B1A60704748
S31520000210141002401510024010E000E014E000E047
S3152000022018E000E04423174A292011780B43137065
S3152000023000231549154A0B6010608020144A40029D
S31520000240136005330B600A680F4B0242FBD0002275
S3152000025029200E491A601A6008600D490A6080211B
S3152000026005321A6049021A680A42FCD0002240214F
S31520000270054B1A60034A074B18781378C0B28B4394
S31520000280137070471410024010E000E014E000E004
S3152000029018E000E011100240062210B5074B084C6A
S315200002A02360084B19780A4301211A701A788A4369
S315200002B01A70FFF7B7FF044B236010BD5555000099
S315200002C000100240141002405555555510B5FFF741
S315200002D0E3FF0306FBD40820FFF7B4FE10BDC0469B
S315200002E010B50400FFF7F2FF2000FFF76BFF272071
S315200002F0FFF7A8FE10BDC04610B5FFF7E7FF382070
S31520000300FFF734FF2720FFF79DFEFFF7DFFF0C20C6
S31520000310FFF72CFF2720FFF795FEFFF7D7FF0120D9
S31520000320FFF724FF0220FFF7D7FEFFF7CFFF0620B7
S31520000330FFF71CFF2720FFF785FE10BD10B50138FB
S31520000340012907D040231843C0B280231843FFF762
S315200003500DFF10BDC0B2F8E70021054B054A13601A
S31520000360054A1180054A1360054A064B1A607047F4
S315200003705555555500100240041002400810024001
S31520000380000055550C10024070B588B06A46224BC5
S3152000039004AE23CB23C21B886C46138032001F4B2E
S315200003A023CB23C21988118000219B7893701C4B84
S315200003B01C4A13601C4A11801C4A13601C4A1D4BA0
S315200003C01A60FFF799FF8020FFF7D0FE2578002DD1
S315200003D00BD0FFF77BFF2800FFF7F4FE0134272020
S315200003E0FFF730FE2578002DF3D1C020FFF7BEFEA3
S315200003F034783500002C0BD0FFF768FF2000FFF77C
S31520000400E1FE01352720FFF71DFE2C78002CF3D1C5
S31520000410002008B070BDC0463804002048040020E3
S315200004205555555500100240041002400810024050
S31520000430000055550C100240416C66616E756D6565
S315200004407269736B20000000446973706C617920B7
S30D200004502D2074657374000071
S70520000000DA
