S01500002E2F44656275672F4C6162325F312E7331399B
S315200000000248854600F0D6F8FEE700BF00C0012072
S3152000001080B483B000AF78607B68042B20D801A21F
S3152000002052F823F05900002039000020410000201A
S3152000003049000020510000200C4B10221A700FE0BE
S315200000400A4B20221A700BE0084B40221A7007E058
S31520000050064B80221A7003E0044B00221A7000BF60
S3152000006000BF0C37BD465DF8047B7047150C024077
S3152000007080B483B000AF134B1B78DBB2FB80FB88C8
S3152000008003F00803002B01D0042315E0FB8803F0BE
S315200000900403002B01D003230EE0FB8803F00203A8
S315200000A0002B01D0022307E0FB8803F00103002B7D
S315200000B001D0012300E0002318460C37BD465DF829
S315200000C0047B7047110C024090B587B000AF164BE9
S315200000D03C460FCB84E80F0001237B6118E07B6947
S315200000E01846FFF795FFFFF7C3FF38613B69002BE2
S315200000F00BD07B69013B9A003B69013B134407F116
S315200001001802134413F8183C09E07B6901337B611C
S315200001107B69042BE3DD054B00221A70FF2318466A
S315200001201C37BD4690BD00BFE0010020150C0240E3
S3152000013080B483B000AF0346FB71FB790F2B03D944
S31520000140064B00221A7004E0FB79044A0449CB5C72
S3152000015013700C37BD465DF8047B7047140C0240C3
S31520000160D001002080B400AF0B4B18221A600B4B35
S315200001700B4A1A600B4B4FF42A021A600A4B0022D4
S315200001801A800A4B00221A70094B00221A7000BFEF
S31520000190BD465DF8047B704730380240000C0240B3
S315200001A0555500550C0C0240040C0240140C02401C
S315200001B0150C024080B582B000AFFFF7D3FFFFF7E2
S315200001C083FF0346FB71FB791846FFF7B1FFF6E77D
S315200001D03F065B4F666D7D077F67777C395E797159
S315200001E00102030A0405060B0708090C0E000F0D71
S70520000000DA
