S01500002E2F44656275672F4C6162325F322E7331399A
S315200000000248854600F046F8FEE7000000C00120C1
S31520000010094B00221A6009492920086004310A6028
S3152000002005221A601A46136813F4803FFBD0024B50
S3152000003000221A60704700BF10E000E014E000E0E4
S3152000004010B5044648B1FFF7E3FFFFF7E1FFFFF7DE
S31520000050DFFFFFF7DDFF013CF5D110BD38B5064CBB
S31520000060A4FB0034A40901344FF47A752846FFF71F
S31520000070E7FF013CFAD138BDD34D621045F2555306
S31520000080034A136004320021118004321360704742
S31520000090000C024008B5FFF7F1FF074D4FF00006B0
S315200000A04FF4FA742E702046FFF7D8FFFF232B70EB
S311200000B02046FFF7D3FFF5E7140C0240B2
S70520000000DA
