S01500002E2F44656275672F4C6162335F312E7331399A
S315200000000248854600F0C2FAFEE700BF00C0012084
S3152000001080B400AF00BFBD465DF8047B704780B456
S3152000002083B000AF786000BF0C37BD465DF8047B17
S31520000030704780B483B000AF786000BF0C37BD46F0
S315200000405DF8047B704780B400AF00BFBD465DF805
S31520000050047B704780B483B000AF0346FB710A4B24
S315200000601B78DBB25AB297F9073023F004035BB250
S3152000007013435AB2044BD2B21A7000BF0C37BD4696
S315200000805DF8047B704700BF1410024080B483B033
S3152000009000AF0346FB71094B1B78DAB2FB79DB43D1
S315200000A0DBB21340DBB2054A23F00403DBB2137044
S315200000B000BF0C37BD465DF8047B70471410024024
S315200000C080B582B000AF0346FB71FB79182B4BD865
S315200000D001A252F823F000BF3D0100206901002053
S315200000E069010020690100206901002069010020C2
S315200000F069010020690100204501002069010020D6
S3152000010069010020690100206901002069010020A1
S3152000011069010020690100205301002069010020A7
S315200001206901002069010020690100206901002081
S315200001306901002069010020610100201820FFF7D5
S31520000140A5FF11E00820FFF785FF1020FFF79EFF8F
S315200001500AE01020FFF77EFF0820FFF797FF03E055
S315200001601820FFF777FF00BF00BF0837BD4680BDC8
S3152000017080B582B000AF4020FFF788FF154B45F2CF
S3152000018055521A600120FFF781FF0220FFF762FF18
S31520000190FFF759FF4020FFF75DFFFFF754FF0E4B97
S315200001A01B78DBB223F07F03FB714020FFF76EFF45
S315200001B0FFF749FFFB79002B00D0EBE700BF054B8B
S315200001C04FF055321A604020FFF744FF00BF083732
S315200001D0BD4680BD001002401110024080B584B09B
S315200001E000AF0346FB711C4B45F255521A60FB7952
S315200001F01846FFF765FF4020FFF748FF0320FFF76B
S3152000020029FFFFF720FF4020FFF724FFFFF71BFF02
S31520000210124B1B78FB734020FFF738FF0E4B4FF035
S3152000022055321A60FB7903F00803002B04D008200E
S31520000230FFF746FFFFF79CFFFB7903F01003002B27
S3152000024004D01020FFF73CFFFFF792FFFB7B1846F8
S315200002501037BD4680BD00BF00100240111002407D
S3152000026080B582B000AF03460A46FB711346BB71C8
S31520000270164AFB791370FFF7E6FE4020FFF7EAFEE9
S31520000280FFF7E1FE4020FFF701FFBB7903F00803EB
S31520000290002B04D00820FFF713FFFFF769FFBB7977
S315200002A003F01003002B04D01020FFF709FFFFF7FF
S315200002B05FFF064B00221A704020FFF7CBFE00207E
S315200002C0FFF7FEFE00BF0837BD4680BD1510024071
S315200002D080B582B000AF0346FB71FB791846FFF765
S315200002E07DFFFB791846FFF779FF03461846083746
S315200002F0BD4680BD80B582B000AF03460A46FB717D
S315200003001346BB71BB791846FFF7DAFE4020FFF78C
S31520000310BDFE0320FFF7BAFEBA79FB7911461846CF
S31520000320FFF79EFF00BF0837BD4680BD80B582B06F
S3152000033000AF03460A46FB711346BB71BB791846CC
S31520000340FFF7BEFE4020FFF7A1FE0120FFF782FE49
S315200003500220FFF79BFEBA79FB7911461846FFF774
S315200003607FFF00BF0837BD4680BD80B582B000AF95
S315200003700023BB711BE0BB7963F04703DBB2182176
S315200003801846FFF7B7FF18214020FFF7B3FF0023D9
S31520000390FB7106E018210020FFF7C8FFFB79013327
S315200003A0FB71FB793F2BF5D9BB790133BB71BB7947
S315200003B0072BE0D900BF0837BD4680BD80B588B081
S315200003C000AFF860B9607A60FB687F2B00F38D8000
S315200003D0BB683F2B00F38980BB68002B00DA07330C
S315200003E0DB10BB61BB685A4203F0070302F0070229
S315200003F058BF5342072B2BD801A252F823F000BF37
S3152000040021040020270400202D040020330400208E
S31520000410390400203F040020450400204B0400201E
S315200004200123FB7716E00223FB7713E00423FB77F7
S3152000043010E00823FB770DE01023FB770AE020234A
S31520000440FB7707E04023FB7704E08023FB7701E07E
S31520000450AA23FB777B68002B02D1FB7FDB43FB774C
S31520000460FB683F2B05DD1023BB77FB68403BFB6019
S3152000047001E00823BB77FB685BB243F040035BB225
S31520000480DBB2BA7F11461846FFF734FFBB695BB271
S3152000049063F047035BB2DBB2BA7F11461846FFF71B
S315200004A029FFBB7F1846FFF713FF0346FB75FB6842
S315200004B05BB243F040035BB2DBB2BA7F114618460B
S315200004C0FFF718FF7B68002B04D0FA7FFB7D1343D0
S315200004D0FB7703E0FA7FFB7D1340FB77BA7FFB7F38
S315200004E011461846FFF722FF00E000BF2037BD4621
S315200004F080BD80B500AF4020FFF7ACFD0A20FFF796
S315200005008EFD7820FFF7C2FD1E20FFF792FD2020EA
S31520000510FFF7A0FD6420FFF78CFD18213E20FFF792
S31520000520E9FE18213F20FFF7E5FE1821C020FFF73E
S31520000530E1FE18214020FFF7DDFE1821B820FFF745
S31520000540D9FE0020FFF7BCFD00BF80BD80B400AF00
S31520000550094B4FF055321A60084B00221A80084B7F
S315200005604FF055321A60074B074A1A6000BFBD4646
S315200005705DF8047B704700BF001002400410024063
S31520000580081002400C1002400000555580B582B07C
S3152000059000AFFFF7DBFFFFF7ACFF00237B6007E030
S315200005A001220A217868FFF709FF7B6801337B6007
S315200005B07B687F2BF4DD00237B6007E001227968CE
S315200005C00A20FFF7FBFE7B6801337B607B683F2BAD
S315200005D0F4DD4FF4FA70FFF72CFD00237B6007E073
S315200005E000220A217868FFF7E9FE7B6801337B60E9
S315200005F07B687F2BF4DD00237B6007E0002279688F
S315200006000A20FFF7DBFE7B6801337B607B683F2B8C
S31120000610F4DD00BF0837BD4680BD00BFEA
S70520000000DA
