S01500002E2F44656275672F4C6162335F312E7331399A
S315200000000248854600F0F8FAFEE700BF00C001204E
S3152000001080B400AF0D4B00221A600D4B29221A60C6
S315200000200C4B00221A60094B05221A6000BF074BB1
S315200000301B6803F48033002BF9D0044B00221A608E
S3152000004000BFBD465DF8047B704700BF10E000E0AE
S3152000005014E000E018E000E080B582B000AF7860E0
S315200000600AE0FFF7D5FFFFF7D3FFFFF7D1FFFFF732
S31520000070CFFF7B68013B7B607B68002BF1D100BF03
S315200000800837BD4680BD80B582B000AF786009E0F4
S315200000900120FFF7E1FF4FF47A70FFF7DDFF7B6861
S315200000A0013B7B607B68002BF2D100BF0837BD4641
S315200000B080BD80B500AFFFF7ABFFFFF7A9FF00BFFC
S315200000C080BD80B483B000AF0346FB71094B1B781B
S315200000D0DBB25AB297F9073023F004035BB213431D
S315200000E05AB2044BD2B21A7000BF0C37BD465DF827
S315200000F0047B70471410024080B483B000AF0346DF
S31520000100FB71094B1B78DAB2FB79DB43DBB2134078
S31520000110DBB2054A23F00403DBB2137000BF0C37B1
S31520000120BD465DF8047B70471410024080B582B04E
S3152000013000AF0346FB71FB79182B4BD801A252F86E
S3152000014023F000BFA9010020D5010020D501002001
S31520000150D5010020D5010020D5010020D5010020A1
S31520000160D5010020B1010020D5010020D5010020B5
S31520000170D5010020D5010020D5010020D501002081
S31520000180D5010020BF010020D5010020D501002087
S31520000190D5010020D5010020D5010020D501002061
S315200001A0D5010020CD0100201820FFF7A5FF11E082
S315200001B00820FFF786FF1020FFF79EFF0AE0102099
S315200001C0FFF77FFF0820FFF797FF03E01820FFF7D0
S315200001D078FF00BF00BF0837BD4680BD80B582B01E
S315200001E000AF4020FFF788FF154B45F255521A60A5
S315200001F00120FFF781FF0220FFF763FFFFF759FF7A
S315200002004020FFF75EFFFFF754FF0E4B1B78DBB253
S3152000021023F07F03FB714020FFF76EFFFFF749FFB6
S31520000220FB79002B00D0EBE700BF054B4FF0553292
S315200002301A604020FFF745FF00BF0837BD4680BD46
S31520000240001002401110024080B584B000AF034672
S31520000250FB711C4B45F255521A60FB791846FFF785
S3152000026065FF4020FFF748FF0320FFF72AFFFFF72F
S3152000027020FF4020FFF725FFFFF71BFF124B1B78BF
S31520000280FB734020FFF738FF0E4B4FF055321A60B4
S31520000290FB7903F00803002B04D00820FFF746FF64
S315200002A0FFF79CFFFB7903F01003002B04D01020EE
S315200002B0FFF73CFFFFF792FFFB7B18461037BD4642
S315200002C080BD00BF001002401110024080B582B0F0
S315200002D000AF03460A46FB711346BB71164AFB79EB
S315200002E01370FFF7E6FE4020FFF7EBFEFFF7E1FE77
S315200002F04020FFF701FFBB7903F00803002B04D051
S315200003000820FFF713FFFFF769FFBB7903F01003FF
S31520000310002B04D01020FFF709FFFFF75FFF064BE5
S3152000032000221A704020FFF7CCFE0020FFF7FEFEC9
S3152000033000BF0837BD4680BD1510024080B582B08B
S3152000034000AF0346FB71FB791846FFF77DFFFB796B
S315200003501846FFF779FF034618460837BD4680BD85
S3152000036080B582B000AF03460A46FB711346BB71C7
S31520000370BB791846FFF7DAFE4020FFF7BDFE0320C3
S31520000380FFF7BAFEBA79FB7911461846FFF79EFFAA
S3152000039000BF0837BD4680BD80B582B000AF03469A
S315200003A00A46FB711346BB71BB791846FFF7BEFEA2
S315200003B04020FFF7A1FE0120FFF783FE0220FFF772
S315200003C09BFEBA79FB7911461846FFF77FFF00BFDF
S315200003D00837BD4680BD80B582B000AF0023BB7113
S315200003E01BE0BB7963F04703DBB218211846FFF701
S315200003F0B7FF18214020FFF7B3FF0023FB7106E06B
S3152000040018210020FFF7C8FFFB790133FB71FB7928
S315200004103F2BF5D9BB790133BB71BB79072BE0D9CB
S3152000042000BF0837BD4680BD80B588B000AFF860F4
S31520000430B9607A60FB687F2B00F38D80BB683F2B09
S3152000044000F38980BB68002B00DA0733DB10BB6121
S31520000450BB685A4203F0070302F0070258BF534213
S31520000460072B2BD801A252F823F000BF8D040020C1
S3152000047093040020990400209F040020A504002056
S31520000480AB040020B1040020B70400200123FB7731
S3152000049016E00223FB7713E00423FB7710E0082302
S315200004A0FB770DE01023FB770AE02023FB7707E09C
S315200004B04023FB7704E08023FB7701E0AA23FB7728
S315200004C07B68002B02D1FB7FDB43FB77FB683F2B4E
S315200004D005DD1023BB77FB68403BFB6001E008236A
S315200004E0BB77FB685BB243F040035BB2DBB2BA7FFB
S315200004F011461846FFF734FFBB695BB263F047032A
S315200005005BB2DBB2BA7F11461846FFF729FFBB7FE5
S315200005101846FFF713FF0346FB75FB685BB243F0F3
S3152000052040035BB2DBB2BA7F11461846FFF718FFCD
S315200005307B68002B04D0FA7FFB7D1343FB7703E017
S31520000540FA7FFB7D1340FB77BA7FFB7F1146184667
S31520000550FFF722FF00E000BF2037BD4680BD80B5F3
S3152000056000AF4020FFF7ADFD0A20FFF775FD78208C
S31520000570FFF7C2FD1E20FFF786FD2020FFF7A1FD15
S315200005806420FFF780FD18213E20FFF7E9FE1821A1
S315200005903F20FFF7E5FE1821C020FFF7E1FE1821D6
S315200005A04020FFF7DDFE1821B820FFF7D9FE0020F6
S315200005B0FFF7BCFD00BF80BD80B400AF094B4FF0F4
S315200005C055321A60084B00221A80084B4FF05532DC
S315200005D01A60074B074A1A6000BFBD465DF8047BC8
S315200005E0704700BF0010024004100240081002406D
S315200005F00C1002400000555580B582B000AFFFF7C1
S31520000600DBFFFFF7ACFFFFF7E6FE00237B6007E08A
S3152000061001220A217868FFF707FF7B6801337B6098
S315200006207B687F2BF4DD00237B6007E0012279685D
S315200006300A20FFF7F9FE7B6801337B607B683F2B3E
S31520000640F4DD4FF4FA70FFF71EFD00237B6007E010
S3152000065000220A217868FFF7E7FE7B6801337B607A
S315200006607B687F2BF4DD00237B6007E0002279681E
S315200006700A20FFF7D9FE7B6801337B607B683F2B1E
S31120000680F4DD00BF0837BD4680BD00BF7A
S70520000000DA
