S01500002E2F44656275672F4C6162335F332E73313998
S315200000000248854600F0FCFBFEE700BF00C0012049
S3152000001080B400AF00BFBD465DF8047B704780B456
S3152000002083B000AF786000BF0C37BD465DF8047B17
S31520000030704780B483B000AF786000BF0C37BD46F0
S315200000405DF8047B704780B400AF00BFBD465DF805
S31520000050047B704780B483B000AF0346FB710A4B24
S315200000601B78DBB25AB297F9073023F004035BB250
S3152000007013435AB2044BD2B21A7000BF0C37BD4696
S315200000805DF8047B704700BF1410024080B483B033
S3152000009000AF0346FB71094B1B78DAB2FB79DB43D1
S315200000A0DBB21340DBB2054A23F00403DBB2137044
S315200000B000BF0C37BD465DF8047B70471410024024
S315200000C080B582B000AF0346FB71FB79182B4BD865
S315200000D001A252F823F000BF3D0100206901002053
S315200000E069010020690100206901002069010020C2
S315200000F069010020690100204501002069010020D6
S3152000010069010020690100206901002069010020A1
S3152000011069010020690100205301002069010020A7
S315200001206901002069010020690100206901002081
S315200001306901002069010020610100201820FFF7D5
S31520000140A5FF11E00820FFF785FF1020FFF79EFF8F
S315200001500AE01020FFF77EFF0820FFF797FF03E055
S315200001601820FFF777FF00BF00BF0837BD4680BDC8
S3152000017080B582B000AF4020FFF788FF144B45F2D0
S3152000018055521A600120FFF781FF0220FFF762FF18
S31520000190FFF759FF4020FFF75DFFFFF754FF0D4B98
S315200001A01B78DBB223F07F03FB714020FFF76EFF45
S315200001B0FFF749FFFB79002B00D0EBE700BF044B8C
S315200001C04FF055321A6000BF0837BD4680BD00BFCC
S315200001D0001002401110024080B584B000AF0346E3
S315200001E0FB711C4B45F255521A60FB791846FFF7F6
S315200001F067FF4020FFF74AFF0320FFF72BFFFFF79B
S3152000020022FF4020FFF726FFFFF71DFF124B1B782A
S31520000210FB734020FFF73AFF0E4B4FF055321A6022
S31520000220FB7903F00803002B04D00820FFF748FFD2
S31520000230FFF79EFFFB7903F01003002B04D010205C
S31520000240FFF73EFFFFF794FFFB7B18461037BD46AE
S3152000025080BD00BF001002401110024080B582B060
S3152000026000AF03460A46FB711346BB71184AFB7959
S315200002701370BB791846FFF723FFFFF7E4FE4020F3
S31520000280FFF7E8FEFFF7DFFE4020FFF7FFFEBB7912
S3152000029003F00803002B04D00820FFF711FFFFF717
S315200002A067FFBB7903F01003002B04D01020FFF763
S315200002B007FFFFF75DFF064B00221A704020FFF76D
S315200002C0C9FE0020FFF7FCFE00BF0837BD4680BDF3
S315200002D01510024080B582B000AF0346FB71FB7952
S315200002E01846FFF779FFFB791846FFF775FF034697
S315200002F018460837BD4680BD80B582B000AF03469C
S315200003000A46FB711346BB714020FFF7BFFE032050
S31520000310FFF7BCFEBA79FB7911461846FFF79EFF18
S3152000032000BF0837BD4680BD80B582B000AF03460A
S315200003300A46FB711346BB714020FFF7A7FE01203A
S31520000340FFF788FE0220FFF7A1FEBA79FB79114656
S315200003501846FFF783FF00BF0837BD4680BD80B42F
S3152000036000AF00BFBD465DF8047B704780B588B0FE
S3152000037000AFF860B9607A60FB68802B00F392804A
S31520000380BB68402B00F38E800023FB77BB68013BC4
S31520000390002B00DA0733DB10BB61BB68013B5A42F6
S315200003A003F0070302F0070258BF5342072B2BD84E
S315200003B001A252F823F000BFD9030020DF0300205A
S315200003C0E5030020EB030020F1030020F7030020C3
S315200003D0FD030020030400200123FB7714E0022301
S315200003E0FB7711E00423FB770EE00823FB770BE075
S315200003F01023FB7708E02023FB7705E04023FB77DB
S3152000040002E08023FB7700BF7B68002B02D1FB7FB5
S31520000410DB43FB77FB68402B05DD1023BB77FB68AE
S31520000420413BFB6004E00823BB77FB68013BFB6094
S31520000430FB685BB243F040035BB2DBB2BA7F114686
S315200004401846FFF759FFBB695BB263F047035BB2FF
S31520000450DBB2BA7F11461846FFF74EFFBB7F184620
S31520000460FFF738FF0346FB75FB685BB243F040039A
S315200004705BB2DBB2BA7F11461846FFF73DFF7B68B9
S31520000480002B04D0FA7FFB7D1343FB7703E0FA7F32
S31520000490FB7D1340FB77BA7FFB7F11461846FFF79B
S315200004A043FF00E000BF2037BD4680BD80B500AFCA
S315200004B04020FFF7CFFD0A20FFF7B1FD7820FFF798
S315200004C0E5FD1E20FFF7B5FD2020FFF7C3FD6420C4
S315200004D0FFF7AFFD18213E20FFF70EFF18213F2022
S315200004E0FFF70AFF1821C020FFF706FF182140203A
S315200004F0FFF702FF1821B820FFF7FEFE0020FFF7C6
S31520000500DFFD00BF80BD80B584B000AF7860396064
S315200005100023FB601DE07B681A68FB6804335B00E0
S3152000052013441B791A467B68DB68134418467B689C
S315200005301A68FB6804335B0013445B791A467B68B0
S315200005401B6913443A681946FFF710FFFB6801330D
S31520000550FB607B681B681B68FA689A42DBDB00BF7E
S315200005601037BD4680BD80B582B000AF78600121CE
S315200005707868FFF7C8FF00BF0837BD4680BD80B545
S3152000058082B000AF786000217868FFF7BCFF00BF1B
S315200005900837BD4680BD80B485B000AFF860B9602D
S315200005A07A60FB68BA685A60FB687A689A6000BF0E
S315200005B01437BD465DF8047B704780B584B000AF24
S315200005C078607B689B69786898477B68DB687A687F
S315200005D052681344FB607B681B697A6892681344EF
S315200005E0BB607B681B685A68FB681344802B0BDD55
S315200005F07B685B685A427B685A607B681B685B68CD
S31520000600C3F18003FB6009E0FB68002B06DC7B68F6
S315200006105B685A427B685A600123FB607B681B68D3
S315200006209A68BB681344402B0BDD7B689B685A4253
S315200006307B689A607B681B689B68C3F14003BB603C
S3152000064009E0BB68002B06DC7B689B685A427B6806
S315200006509A600123BB60FA687B68DA60BA687B68B7
S315200006601A617B685B697868984700BF1037BD467A
S3152000067080BD80B400AF104B4FF055321A600F4B3F
S3152000068000221A800E4B4FF055321A600D4B0E4A3F
S315200006901A600E4B0E4A1A600E4B4FF42A021A604D
S315200006A00D4B00221A800D4B00221A7000BFBD464A
S315200006B05DF8047B704700BF001002400410024022
S315200006C0081002400C10024000005555000C024054
S315200006D0555500550C0C0240040C024015100240E2
S315200006E080B483B000AF78607B68042B20D801A249
S315200006F052F823F0290700200907002011070020BF
S3152000070019070020210700200C4B10221A700FE039
S315200007100A4B20221A700BE0084B40221A7007E081
S31520000720064B80221A7003E0044B00221A7000BF89
S3152000073000BF0C37BD465DF8047B7047150C0240A0
S3152000074080B483B000AF134B1B78DBB2FB80FB88F1
S3152000075003F00803002B01D0042315E0FB8803F0E7
S315200007600403002B01D003230EE0FB8803F00203D1
S31520000770002B01D0022307E0FB8803F00103002BA6
S3152000078001D0012300E0002318460C37BD465DF852
S31520000790047B7047110C024090B587B000AF164B12
S315200007A03C460FCB84E80F0001237B6118E07B6970
S315200007B01846FFF795FFFFF7C3FF38613B69002B0B
S315200007C00BD07B69013B9A003B69013B134407F13F
S315200007D01802134413F8183C09E07B6901337B6146
S315200007E07B69042BE3DD054B00221A70FF23184694
S315200007F01C37BD4690BD00BF04090020150C0240E1
S3152000080080B584B000AF78603960274BFB60FFF776
S3152000081030FFFFF74BFEFFF7A2FDFB68DB69F868A8
S3152000082098472820FFF705FCFFF7B6FF0346FB7223
S31520000830FB7A023B062BF0D801A252F823F000BF28
S31520000840890800201B0800206B0800207B08002058
S315200008505D0800201B08002099080020FB681B6A01
S3152000086000220221F86898471DE0FB681B6A0022D7
S315200008706FF00101F868984715E0FB681B6A0022B3
S315200008800021F86898470EE0FB681B6A6FF00102AA
S315200008900021F868984706E0FB681B6A02220021BF
S315200008A0F868984700BFB8E7E00800200C00000071
S315200008B00400000004000000000100020100010104
S315200008C001020103020002010202020303010302E4
S315200008D000000000000000000000000000000000F2
S315200008E0AC0800200200000001000000010000000A
S315200008F001000000670500207F050020BB050020C1
S31520000900970500200102030A0405060B0708090CB7
S309200009100E000F0D93
S70520000000DA
