S01500002E2F44656275672F4C6162335F322E73313999
S315200000000248854600F0CCFBFEE7C04600C0012032
S3152000001080B500AF0C4B00221A600C4B29221A60C7
S315200000200B4B00221A60084B05221A60C046064B6D
S315200000301A6880235B021340F9D0034B00221A6012
S31520000040C046BD4680BDC04610E000E014E000E09A
S3152000005018E000E080B582B000AF78600AE0FFF7D4
S31520000060D7FFFFF7D5FFFFF7D3FFFFF7D1FF7B6859
S31520000070013B7B607B68002BF1D1C046BD4602B0B8
S3152000008080BD80B582B000AF78600AE00120FFF71E
S31520000090E1FFFA239B001800FFF7DCFF7B68013B9A
S315200000A07B607B68002BF1D1C046BD4602B080BD87
S315200000B080B500AFFFF7ACFFFFF7AAFFC046BD46ED
S315200000C080BD80B582B000AF0200FB1D1A70094BBF
S315200000D01B78DBB25AB2FB1D1B785BB204218B4323
S315200000E05BB213435AB2034BD2B21A70C046BD4616
S315200000F002B080BD1410024080B582B000AF02006D
S31520000100FB1D1A70084B1B78DBB2FA1D1278D243FE
S31520000110D2B21340DBB2044A04218B43DBB2137004
S31520000120C046BD4602B080BD1410024080B582B0E4
S3152000013000AF0200FB1D1A70FB1D1B78082B0CD08C
S3152000014002DC002B05D01AE0102B0DD0182B12D074
S3152000015015E01820FFF7D0FF11E00820FFF7B1FFC8
S315200001601020FFF7C9FF0AE01020FFF7AAFF08209A
S31520000170FFF7C2FF03E01820FFF7A3FFC046C046E3
S31520000180BD4602B080BD80B582B000AF4020FFF7EB
S31520000190B3FF144B144A1A600120FFF7ADFF02206B
S315200001A0FFF78FFFFFF784FF4020FFF78AFFFFF757
S315200001B07FFF0E4B1B78DAB2FB1D7F218A431A7014
S315200001C04020FFF799FFFFF773FFFB1D1B78002BDD
S315200001D000D0E9E7C046034B054A1A60C046BD4633
S315200001E002B080BD0010024055550000111002409B
S315200001F05555555580B584B000AF0200FB1D1A70C9
S315200002001D4B1E4A1A60FB1D1B781800FFF78EFF38
S315200002104020FFF771FF0320FFF753FFFFF748FF4A
S315200002204020FFF74EFFFFF743FF154A0F23FB1829
S3152000023012781A704020FFF75FFF0F4B114A1A60A1
S31520000240FB1D1B780822134004D00820FFF76EFF01
S31520000250FFF799FFFB1D1B781022134004D01020B6
S31520000260FFF764FFFFF78FFF0F23FB181B7818009B
S31520000270BD4604B080BDC046001002405555000062
S31520000280111002405555555580B582B000AF020079
S31520000290FB1D1A70BB1D0A1C1A701A4AFB1D1B78FF
S315200002A01370BB1D1B781800FFF740FFFFF700FFF8
S315200002B04020FFF706FFFFF7FBFE4020FFF71CFF5D
S315200002C0BB1D1B780822134004D00820FFF72EFF01
S315200002D0FFF759FFBB1D1B781022134004D01020B6
S315200002E0FFF724FFFFF74FFF064B00221A7040202E
S315200002F0FFF7E7FE0020FFF719FFC046BD4602B014
S3152000030080BDC0461510024080B582B000AF020005
S31520000310FB1D1A70FB1D1B781800FFF76BFFFB1DDA
S315200003201B781800FFF766FF03001800BD4602B0D1
S3152000033080BD80B582B000AF0200FB1D1A70BB1DC8
S315200003400A1C1A704020FFF7D7FE0320FFF7D4FEC1
S31520000350BB1D1A78FB1D1B7811001800FFF794FFB0
S31520000360C046BD4602B080BD80B582B000AF020057
S31520000370FB1D1A70BB1D0A1C1A704020FFF7BCFE1D
S315200003800120FFF79EFE0220FFF7B6FEBB1D1A785E
S31520000390FB1D1B7811001800FFF776FFC046BD46EF
S315200003A002B080BD80B582B000AFBB1D00221A709E
S315200003B023E0BB1D1B78482252421343DBB218218F
S315200003C01800FFF7B6FF18214020FFF7B2FFFB1DEC
S315200003D000221A7008E018210020FFF7C5FFFB1D38
S315200003E01A78FB1D01321A70FB1D1B783F2BF2D9A0
S315200003F0BB1D1A78BB1D01321A70BB1D1B78072B3B
S31520000400D7D9C046BD4602B080BDB0B588B000AFD2
S31520000410F860B9607A60FB68802B00DDB2E0BB68CB
S31520000420402B00DDAEE01F23FB1800221A70BB68AC
S31520000430013B002B00DA0733DB10BB61BB68013BB5
S31520000440524A134004D5013B08225242134301333A
S31520000450072B2CD89A004E4BD3181B689F461F2378
S31520000460FB1801221A7022E01F23FB1802221A70A1
S315200004701DE01F23FB1804221A7018E01F23FB1807
S3152000048008221A7013E01F23FB1810221A700EE0A0
S315200004901F23FB1820221A7009E01F23FB18402275
S315200004A01A7004E01F23FB1880221A70C0467B684E
S315200004B0002B05D11F22BB18BA181278D2431A7006
S315200004C0FB68402B07DD1E23FB1810221A70FB68E1
S315200004D0413BFB6006E01E23FB1808221A70FB68CE
S315200004E0013BFB60FB685BB2402213435BB2DAB28E
S315200004F01E257B191B7819001000FFF71AFFBB6910
S315200005005BB24822524213435BB2DAB27B191B78A4
S3152000051019001000FFF70DFF1723FC187B191B7815
S315200005201800FFF7F1FE03002370FB685BB2402240
S3152000053013435BB2DAB27B191B7819001000FFF760
S31520000540F8FE7B68002B09D01F22BB18B91817228A
S31520000550BA18097812780A431A7008E01F22BB18C5
S31520000560BA1817217918127809780A401A701E23AA
S31520000570FB181A781F23FB181B7811001800FFF7A9
S31520000580F3FE00E0C046BD4608B0B0BD07000080BF
S315200005903408002080B500AF4020FFF792FD0A20E6
S315200005A0FFF758FD7820FFF7A7FD1E20FFF769FD0E
S315200005B02020FFF786FD6420FFF763FD18213E20EB
S315200005C0FFF7B7FE18213F20FFF7B3FE1821C02002
S315200005D0FFF7AFFE18214020FFF7ABFE1821B82009
S315200005E0FFF7A7FE0020FFF7A1FDC046BD4680BD50
S315200005F080B584B000AF786039600023FB6020E0CE
S315200006007B681A68FB6804335B00D31804331B78B5
S315200006101A007B68DB68D31818007B681A68FB68A9
S3152000062004335B00D31805331B781A007B681B69DB
S31520000630D31819003B681A00FFF7E7FEFB68013361
S31520000640FB607B681B681B68FA689A42D8DBC04649
S31520000650BD4604B080BD80B582B000AF78607B68AF
S3152000066001211800FFF7C4FFC046BD4602B080BD79
S3152000067080B582B000AF78607B6800211800FFF754
S31520000680B7FFC046BD4602B080BD80B584B000AF7E
S31520000690F860B9607A60FB68BA685A60FB687A6865
S315200006A09A60C046BD4604B080BD80B584B000AF18
S315200006B078607B689B697A68100098477B68DA685F
S315200006C07B685B68D318FB607B681A697B689B68CC
S315200006D0D318BB607B681B685A68FB68D318802BCD
S315200006E00BDD7B685B685A427B685A607B681B68B7
S315200006F05B688022D31AFB6009E0FB68002B06DCCE
S315200007007B685B685A427B685A600123FB607B6882
S315200007101B689A68BB68D318402B0BDD7B689B68E7
S315200007205A427B689A607B681B689B684022D31A72
S31520000730BB6009E0BB68002B06DC7B689B685A42DD
S315200007407B689A600123BB60FA687B68DA60BA68C6
S315200007507B681A617B685B697A6810009847C04697
S31520000760BD4604B080BD80B500AF074B074A1A606E
S31520000770074B00221A80074B044A1A60064B074A89
S315200007801A60C046BD4680BD0010024055555555DD
S3152000079004100240081002400C100240000055557B
S315200007A080B584B000AF786039600B4BFB60FFF7F3
S315200007B0DAFFFFF7EFFEFFF7F5FDFB681B6AF86827
S315200007C0012204219847FB68DB69FA6810009847E4
S315200007D02820FFF756FCF6E7100800200C00000042
S315200007E004000000040000000001000201000101D5
S315200007F001020103020002010202020303010302B5
S3152000080000000000000000000000000000000000C2
S31520000810DC070020000000000000000001000000AE
S31520000820010000005706002071060020AB060020BC
S315200008308B0600205E04002068040020720400203D
S315200008407C04002086040020900400209A040020C6
S30920000850A4040020B6
S70520000000DA
