S01500002E2F44656275672F4C6162335F322E73313999
S315200000000248854600F060FBFEE7C04600C001209E
S3152000001080B500AFC046BD4680BD80B582B000AF7A
S315200000207860C046BD4602B080BD80B582B000AFC4
S315200000307860C046BD4602B080BD80B500AFC046E0
S31520000040BD4680BD80B582B000AF0200FB1D1A7090
S31520000050094B1B78DBB25AB2FB1D1B785BB204211D
S315200000608B435BB213435AB2034BD2B21A70C046CB
S31520000070BD4602B080BDC0461410024080B582B095
S3152000008000AF0200FB1D1A70084B1B78DBB2FA1D6D
S315200000901278D243D2B21340DBB2044A04218B43F6
S315200000A0DBB21370C046BD4602B080BD14100240BC
S315200000B080B582B000AF0200FB1D1A70FB1D1B78B5
S315200000C0082B0CD002DC002B05D01AE0102B0DD00B
S315200000D0182B12D015E01820FFF7D0FF11E00820CA
S315200000E0FFF7B0FF1020FFF7C9FF0AE01020FFF747
S315200000F0A9FF0820FFF7C2FF03E01820FFF7A2FFA1
S31520000100C046C046BD4602B080BD80B582B000AFB5
S315200001104020FFF7B3FF144B144A1A600120FFF763
S31520000120ADFF0220FFF78EFFFFF787FF4020FFF786
S3152000013089FFFFF782FF0E4B1B78DAB2FB1D7F216A
S315200001408A431A704020FFF799FFFFF776FFFB1DC1
S315200001501B78002B00D0E9E7C046034B054A1A60FE
S31520000160C046BD4602B080BD001002405555000075
S31520000170111002405555555580B584B000AF020088
S31520000180FB1D1A701D4B1E4A1A60FB1D1B7818009A
S31520000190FFF78EFF4020FFF771FF0320FFF752FF86
S315200001A0FFF74BFF4020FFF74DFFFFF746FF154AAD
S315200001B00F23FB1812781A704020FFF75FFF0F4BB2
S315200001C0114A1A60FB1D1B780822134004D0082010
S315200001D0FFF76EFFFFF799FFFB1D1B7810221340D8
S315200001E004D01020FFF764FFFFF78FFF0F23FB18C3
S315200001F01B781800BD4604B080BDC04600100240E2
S3152000020055550000111002405555555580B582B000
S3152000021000AF0200FB1D1A70BB1D0A1C1A701A4A79
S31520000220FB1D1B781370BB1D1B781800FFF740FFC2
S31520000230FFF703FF4020FFF705FFFFF7FEFE4020F4
S31520000240FFF71CFFBB1D1B780822134004D0082093
S31520000250FFF72EFFFFF759FFBB1D1B781022134017
S3152000026004D01020FFF724FFFFF74FFF064B002294
S315200002701A704020FFF7E6FE0020FFF719FFC04660
S31520000280BD4602B080BDC0461510024080B582B082
S3152000029000AF0200FB1D1A70FB1D1B781800FFF72C
S315200002A06BFFFB1D1B781800FFF766FF0300180085
S315200002B0BD4602B080BD80B582B000AF0200FB1DF6
S315200002C01A70BB1D0A1C1A704020FFF7D7FE0320A8
S315200002D0FFF7D4FEBB1D1A78FB1D1B7811001800F2
S315200002E0FFF794FFC046BD4602B080BD80B582B000
S315200002F000AF0200FB1D1A70BB1D0A1C1A7040209D
S31520000300FFF7BCFE0120FFF79DFE0220FFF7B6FE99
S31520000310BB1D1A78FB1D1B7811001800FFF776FF0E
S31520000320C046BD4602B080BD80B500AFC046BD46C2
S3152000033080BDB0B588B000AFF860B9607A60FB6860
S31520000340802B00DDB2E0BB68402B00DDAEE01F2332
S31520000350FB1800221A70BB68013B002B00DA07331A
S31520000360DB10BB61BB68013B524A134004D5013BFD
S315200003700822524213430133072B2CD89A004E4BA6
S31520000380D3181B689F461F23FB1801221A7022E0F0
S315200003901F23FB1802221A701DE01F23FB180422BC
S315200003A01A7018E01F23FB1808221A7013E01F2367
S315200003B0FB1810221A700EE01F23FB1820221A7039
S315200003C009E01F23FB1840221A7004E01F23FB18A4
S315200003D080221A70C0467B68002B05D11F22BB18CD
S315200003E0BA181278D2431A70FB68402B07DD1E23F9
S315200003F0FB1810221A70FB68413BFB6006E01E23A7
S31520000400FB1808221A70FB68013BFB60FB685BB295
S31520000410402213435BB2DAB21E257B191B781900E2
S315200004201000FFF748FFBB695BB2482252421343D4
S315200004305BB2DAB27B191B7819001000FFF73BFF7D
S315200004401723FC187B191B781800FFF71FFF0300E2
S315200004502370FB685BB2402213435BB2DAB27B198E
S315200004601B7819001000FFF726FF7B68002B09D0A8
S315200004701F22BB18B9181722BA18097812780A430E
S315200004801A7008E01F22BB18BA181721791812789B
S3152000049009780A401A701E23FB181A781F23FB18A6
S315200004A01B7811001800FFF721FF00E0C046BD466B
S315200004B008B0B0BD070000805C07002080B500AF03
S315200004C04020FFF7BFFD0A20FFF7A7FD7820FFF7A2
S315200004D0D5FD1E20FFF7A9FD2020FFF7B3FD6420E0
S315200004E0FFF7A3FD18213E20FFF7E5FE18213F2048
S315200004F0FFF7E1FE1821C020FFF7DDFE182140207E
S31520000500FFF7D9FE1821B820FFF7D5FE0020FFF708
S31520000510CFFDC046BD4680BD80B584B000AF7860B3
S3152000052039600023FB6020E07B681A68FB6804338F
S315200005305B00D31804331B781A007B68DB68D3185A
S3152000054018007B681A68FB6804335B00D3180533F0
S315200005501B781A007B681B69D31819003B681A00A0
S31520000560FFF7E7FEFB680133FB607B681B681B68AF
S31520000570FA689A42D8DBC046BD4604B080BD80B535
S3152000058082B000AF78607B6801211800FFF7C4FFB6
S31520000590C046BD4602B080BD80B582B000AF78604F
S315200005A07B6800211800FFF7B7FFC046BD4602B0A2
S315200005B080BD80B584B000AFF860B9607A60FB6812
S315200005C0BA685A60FB687A689A60C046BD4604B02D
S315200005D080BD80B584B000AF78607B689B697A68FF
S315200005E0100098477B68DA687B685B68D318FB60E5
S315200005F07B681A697B689B68D318BB607B681B681D
S315200006005A68FB68D318802B0BDD7B685B685A42DF
S315200006107B685A607B681B685B688022D31AFB6004
S3152000062009E0FB68002B06DC7B685B685A427B6826
S315200006305A600123FB607B681B689A68BB68D318E5
S31520000640402B0BDD7B689B685A427B689A607B68EF
S315200006501B689B684022D31ABB6009E0BB68002B4D
S3152000066006DC7B689B685A427B689A600123BB60E4
S31520000670FA687B68DA60BA687B681A617B685B69AE
S315200006807A6810009847C046BD4604B080BD80B544
S3152000069000AF074B074A1A60074B00221A80074B08
S315200006A0044A1A60064B074A1A60C046BD4680BDFA
S315200006B000100240555555550410024008100240BE
S315200006C00C1002400000555580B584B000AF78600C
S315200006D039600B4BFB60FFF7DAFFFFF7EFFEFFF702
S315200006E023FEFB681B6AF868012204219847FB68F1
S315200006F0DB69FA68100098472820FFF796FCF6E792
S31520000700380700200C000000040000000400000050
S3152000071000010002010001010102010302000201A1
S315200007200202020303010302000000000000000091
S315200007300000000000000000040700200000000068
S315200007400000000001000000010000007F050020DD
S3152000075099050020D3050020B3050020860300203C
S31520000760900300209A030020A4030020AE0300205B
S31120000770B8030020C2030020CC030020A8
S70520000000DA
